:100000000C9432050C9479050C9479050C947905BF
:100010000C9479050C9479050C9479050C94790568
:100020000C9479050C9479050C94D3250C94A62690
:100030000C94DE1C0C9479050C9479050C947905CC
:100040000C9479050C9479050C9479050C94790538
:100050000C9479050C943F1D0C9479050C9479054A
:100060000C9479050C9479050C9479050C94790518
:100070000C9479050C9479050C9479050C94790508
:100080000C9479050C9479050C9479050C947905F8
:100090000C9479050C9479050C9479050C947905E8
:1000A0000C9479050C9479050C94790529001400B9
:1000B0001A000800150017001C0018000C001200A0
:1000C00013002A000000E0000400160007000900E9
:1000D0000A000B000D000E000F0028000000E100D8
:1000E0001D001B000600190005001100100037005C
:1000F000E10001510000E200E30000000000000008
:100100002C000000000065000251000035001E00B8
:100110001F002000210022002300240025002600CB
:1001200027000100000001000100010001000100A2
:1001300001004A0049003300340031000000010092
:1001400034703A703B7035704D004C003600010041
:100150003800010000000100010000000000000064
:100160000100000000000100035100003A003B00C4
:1001700052003D003E003F004000410042002F0081
:100180003000450000000100500051004F00010008
:100190000100010047004B00520046000000010032
:1001A0000100010001000100010048004E00500064
:1001B0004F000100000001000100000000000000ED
:1001C00001000000000051000100000001000100DA
:1001D0003C0001000100010001000100010043009A
:1001E000440001000000390001000100010001008D
:1001F00001000100010001000100010000000100F8
:1002000001000100010001000100010001000100E6
:1002100001000100000001000100000000000000DA
:1002200001000000000001000100000001000100C9
:1002300001000100010001000100010001000100B6
:1002400001000100000001000100010001000100A7
:100250000100010001000100010001000000010097
:100260000100010001000100010001000100010086
:10027000010001000000010001000000000000007A
:100280000100000000000100010000000100010069
:100290000100010001000100010001000100010056
:1002A0000100010000000100010001000100010047
:1002B0000100010001000100010001000000010037
:1002C0000100010001000100010001000100010026
:1002D000010001000000010001000000000000001A
:1002E0000100000000000100010000000100010009
:1002F00001000100010001000100010001000100F6
:1003000001000100000001000100010001000100E6
:1003100001000100010001000100010000000100D6
:1003200001000100010001000100010001000100C5
:1003300001000100000001000100000000000000B9
:1003400001000000000001000100000001000100A8
:100350000100010001000100010001000100010095
:100360000100010000000100010001000100010086
:100370000100010001000100010001000000010076
:100380000100010001000100010001000100010065
:100390000100010000000100010000000000000059
:1003A0000100000000000100010000000100010048
:1003B0000100010001000100010001000100010035
:1003C0000100010000000100010001000100010026
:1003D0000100010001000100010001000000010016
:1003E0000100010001000100010001000100010005
:1003F00001000100000001000100000000000000F9
:1004000001000000000001000100000001000100E7
:1004100001000100010001000100010001000100D4
:1004200001000100000001000100010001000100C5
:1004300001000100010001000100010000000100B5
:1004400001000100010001000100010001000100A4
:100450000100010000000100010000000000000098
:100460000100000000000100010000000100010087
:100470000100010001000100010001000100010074
:100480000100010000000100010001000100010065
:100490000100010001000100010001000000010055
:1004A0000100010001000100010001000100010044
:1004B0000100010000000100010000000000000038
:1004C0000100000000000100010000000100010027
:1004D0000100010001000100010001000100010014
:1004E0000100010000000100010001000100010005
:1004F00001000100010001000100010000000100F5
:1005000001000100010001000100010001000100E3
:1005100001000100000001000100000000000000D7
:1005200001000000000001000100000001000100C6
:1005300001000100010001000100010001000100B3
:1005400001000100000001000100010001000100A4
:100550000100010001000100010001000000010094
:100560000100010001000100010001000100010083
:100570000100010000000100010000000000000077
:100580000100000000000100010000000100010066
:100590000100010001000100010001000100010053
:1005A0000100010000000100010001000100010044
:1005B0000100010001000100010001000000010034
:1005C0000100010001000100010001000100010023
:1005D0000100010000000100010000000000000017
:1005E0000100000000000100010000000100010006
:1005F00001000100010001000100010001000100F3
:1006000001000100000001000100010001000100E3
:1006100001000100010001000100010000000100D3
:1006200001000100010001000100010001000100C2
:1006300001000100000001000100000000000000B6
:1006400001000000000001000100000001000100A5
:100650000100010001000100010001000100010092
:100660000100010000000100010001000100010083
:100670000100010001000100010001000000010073
:100680000100010001000100010001000100010062
:100690000100010000000100010000000000000056
:1006A0000100000000000100010000006432146439
:1006B0003214783C1E1E140A0500000000010101DE
:1006C0000202030405050607090A0B0C0E0F11129E
:1006D000141517191B1D1F212325282A2C2F3134EF
:1006E00036393B3E414346494C4F5255585A5D615D
:1006F00064676A6D707376797C7F8386898C8F924C
:1007000095989B9EA2A5A7AAADB0B3B6B9BCBEC131
:10071000C4C6C9CBCED0D3D5D7DADCDEE0E2E4E67E
:10072000E8EAEBEDEEF0F1F3F4F5F6F8F9FAFAFB9E
:10073000FCFDFDFEFEFEFFFFFFFFFFFFFFFEFEFED6
:10074000FDFDFCFBFAFAF9F8F6F5F4F3F1F0EEED45
:10075000EBEAE8E6E4E2E0DEDCDAD7D5D3D0CECBD4
:10076000C9C6C4C1BEBCB9B6B3B0ADAAA7A5A29E46
:100770009B9895928F8C898683807C797673706D37
:100780006A6764615D5A5855524F4C494643413E31
:100790003B393634312F2C2A282523211F1D1B19C4
:1007A00017151412110F0E0C0B0A09070605050484
:1007B000030202010101000000000000000001012D
:1007C0000101010101010102020202020202020210
:1007D00003030303030303030404040404040505DF
:1007E00005050506060606060707070708080808A0
:1007F0000909090A0A0A0A0B0B0B0C0C0C0D0D0D4A
:100800000E0E0F0F0F1010111111121213131414DA
:10081000151516161717181819191A1A1B1C1C1D4E
:100820001D1E1F1F202021222223242525262727A5
:1008300028292A2B2B2C2D2E2F2F303132333435D3
:1008400036363738393A3B3C3D3E3F4041424344DF
:10085000464748494A4B4C4D4F50515253555657B5
:10086000585A5B5C5E5F606263646667696A6C6D60
:100870006E707173747678797B7C7E8081838486D8
:10088000888A8B8D8F91929496989A9B9D9FA1A315
:10089000A5A7A9ABADAFB1B3B5B7B9BBBDBFC1C417
:1008A000C6C8CACCCFD1D3D6D8DADCDFE1E4E6E8DB
:1008B000EBEDF0F2F5F7FAFCFF12036B006500793F
:1008C0000062006F00610072006400000016037196
:1008D000006D006B006200750069006C00640065CB
:1008E00000720000000403090409026D0004010005
:1008F000A0FA09040000010301010009211101000F
:10090000012240000705810308000A0904010001D3
:1009100003010200092111010001224D0007058297
:100920000308000A09040200010300000009211164
:100930000100012236000705830308000A090403A9
:100940000001030000000921110100012239000704
:100950000584032000011201100100000008EDFED3
:10096000606001000102000105010906A1010507FF
:1009700019E029E715002501950875018102050890
:1009800019012905950575019102950175039101DC
:100990000507190029F71500250195F87501810251
:1009A000C005010980A10185021601002603001A75
:1009B00081002A8300751095018100C0050C090192
:1009C000A1018503160100269C021A01002A9C023F
:1009D000751095018100C005010902A1010901A15D
:1009E00000050919012905150025019505750181E5
:1009F0000295017503810105010930093115812531
:100A00007F95027508810609381581257F95017546
:100A1000088106050C0A38021581257F95017508A5
:100A20008106C0C005010906A101050719E029E7F3
:100A30001500250195087501810295017508810150
:100A400005081901290595057501910295017503A0
:100A500091010507190029FF150026FF009506756D
:100A6000088100C011241FBECFEFDAE0DEBFCDBF8A
:100A700004B603FE27C080916D0290916E02A09192
:100A80006F02B09170028730904BA740B04BD1F409
:100A900010926D0210926E0210926F02109270020C
:100AA00014BE84B7877F84BF0FB6F894A895809151
:100AB0006000886180936000109260000FBEE0E0EB
:100AC000F8E3099511E0A0E0B1E0ECE5F4E502C03F
:100AD00005900D92A833B107D9F722E0A8E3B1E061
:100AE00001C01D92AD36B207E1F70E9427230C9496
:100AF000F7290C94000090E080E00895089508958F
:100B000081E00895089581E008950C9480050E9485
:100B100028152FEF84E39CE0215080409040E1F7BE
:100B200000C000000C94621DEF92FF920F931F9380
:100B3000CF93DF937C01DC010D911C911197809183
:100B40008301811143C012968C918823D1F1C80191
:100B50000E94AD1AC82F682FC8010E94561AB8010A
:100B60008C2F0E94FF06EC01B7010E9485058823A7
:100B700009F468C0B701CE010E940809882309F46E
:100B800061C0CE33B0E7DB0770F4C433E0E7DE07C3
:100B900010F5C130F0E7DF0709F45CC050F5C1156E
:100BA000D04709F44AC081E080933A0180933B0129
:100BB000C701DF91CF911F910F91FF90EF900C949F
:100BC0008305C8010E94841AC82FC9CFC8010E949A
:100BD000AD1AB801C6CFFE01E553F047D701129612
:100BE0008C91E930F10508F040C0E750F64D0C94C7
:100BF000A929CE01825090474397A8F6F701828138
:100C00008823B1F20E946F1C811102C00E944E1C09
:100C10000E948C1C90E090935F0280935E02FE0124
:100C2000E350F04780915E028160E231F10508F007
:100C300047C0EE5FF54D0C94A929F701828181111F
:100C40000E94870580E0DF91CF911F910F91FF9067
:100C5000EF900895D70112968C91882399F3809193
:100C60000702816080930702EDCF882359F30E9429
:100C7000810DE8CF882331F30E94770DE3CF8823DD
:100C800009F30E94540CDECF8823E1F20E946C0C21
:100C9000D9CF8823B9F20E948B0CD4CF882391F24C
:100CA0000E94A30CCFCF882369F20E94BB0CCACF4D
:100CB000882341F20E94D30CC5CF80915E028260EE
:100CC00080935E0280915E020E94901C0E94281513
:100CD000B9CF80915E028460F3CF80915E0288601C
:100CE000EFCF80915E028061EBCF80915E028062E7
:100CF000E7CF80915E028064E3CF80915E028068DE
:100D0000DFCF80915E028C60DBCF80915E028E7FB0
:100D1000D7CF80915E028D7FD3CF80915E028B7F93
:100D2000CFCF80915E02877FCBCF80915E028F7E96
:100D3000C7CF80915E028F7DC3CF80915E028F7B93
:100D4000BFCF80915E028F77BBCF80915E02837FA1
:100D5000B7CF90915E02892F97FB87F98058B0CF6B
:100D6000882361F010923A010E940E1D9093390180
:100D70008093380182E00E948D1264CF80913A0105
:100D800081110FC080913801909139010E941A1D84
:100D9000883C910530F486E20E94621186E20E944E
:100DA0003E1282E00E9494124DCF882351F010929F
:100DB0003B010E940E1D909339018093380180E21F
:100DC000DACF80913B0181110FC080913801909161
:100DD00039010E941A1D883C910530F487E20E9477
:100DE000621187E20E943E1280E2DCCF0C94570928
:100DF0000C9459090C9482050C94FA060895972FC7
:100E000070E02CE0929F600D711D1124FB0190E3B6
:100E1000899FE00DF11D1124EE0FFF1FE455FF4FD8
:100E2000859194910895FC01EE0FFF1FE455F94F51
:100E30008591949108950E94FF060E948C089C0160
:100E4000811540E4940708F097C0211580E3380726
:100E500008F0FAC0203E310508F074C0203C31058E
:100E600008F0E5C0283A310588F4253A310508F044
:100E7000E2C02130310509F477C0C9010497813AF5
:100E8000910508F471C030E020E06EC0C901885AB5
:100E900091094597C0F7283A310509F4FEC0293A6F
:100EA000310509F4FDC02A3A310509F4FCC02B3A9A
:100EB000310509F4FBC02C3A310509F4FAC02B3B8B
:100EC000310509F4F9C02C3B310509F4F8C02D3A7D
:100ED000310509F4F7C0203B310509F4F6C02E3A7C
:100EE000310509F4F5C02F3A310509F4F4C0213B6E
:100EF000310509F4F3C0223B310509F4F2C0233B6C
:100F0000310509F4F1C0243B310509F4F0C0253B5B
:100F1000310509F4EFC0263B310509F4EEC0273B4B
:100F2000310509F4EDC0283B310509F4ECC0293B3B
:100F3000310509F4EBC02A3B310509F4EAC020E091
:100F400034E412C0211590E2390780F42F3F3105B7
:100F500009F050F4283E310538F0C901805F91094D
:100F60003065409708F08FCFC9010895C9019F707F
:100F70000E9413079C01F8CF8115944508F041C0E9
:100F8000211583E5380708F06AC0211592E5390775
:100F900038F5211541E5340708F05CC0211580E5DE
:100FA000380708F454C0C90134E0969587953A95FE
:100FB000E1F78370422F46954695437090E2499F32
:100FC000A0011124582B822F837021E030E002C051
:100FD000220F331F8A95E2F7242B352B3C68C4CFB0
:100FE000C9018370992741E050E002C0440F551FAA
:100FF0008A95E2F72695269580E2289F9001112494
:10100000EBCF211596E5390748F4922F8827211553
:101010003545C8F59C01246F306AA6CFC9019056AA
:101020003F708115904108F02ECF30629DCFC901ED
:10103000805C91099DCF253A310549F1263A310569
:1010400049F522E830E490CF3327306C8DCF3F70E4
:10105000306A8ACF322F2227216F306A85CFC901AB
:101060008370992741E050E002C0440F551F8A95D4
:10107000E2F72695269580E2289F90011124242BE3
:10108000352B3A6871CF88279F719C01CECF21E81C
:1010900030E46ACF23E830E467CF22EE34E464CF53
:1010A00029EE34E461CF2AEE34E45ECF25EB34E45C
:1010B0005BCF26EB34E458CF23EB34E455CF24EB5D
:1010C00034E452CF27EB34E44FCF2CEC34E44CCF54
:1010D0002DEC34E449CF23E835E446CF2AE835E463
:1010E00043CF22E935E440CF24E935E43DCF21E286
:1010F00036E43ACF23E236E437CF24E236E434CF85
:1011000025E236E431CF26E236E42ECF27E236E47C
:101110002BCF2AE236E428CF803E910581F1C8F436
:101120008133910509F462C048F48932910509F4CC
:1011300056C08A32910509F460C00895893391053B
:10114000B9F082389105A1F08533910509F440C0CA
:101150000895863E910561F138F4823E9105B1F023
:10116000833E9105E1F00895873E910551F1089580
:1011700020915E022370D9F080EE90E008952091D6
:101180005E0220FF14C089E390E0089520915E0282
:1011900022FF0DC024FD09C083EE90E00895209148
:1011A0005E0222FD31C024FF02C090E080E008957D
:1011B00020915E0223FFFBCF24FDF7CF87EE90E066
:1011C000089520915E0223FFEECF86EE90E0089511
:1011D00020915E0225FFEBCF89E290E008952091F7
:1011E0005E0225FFE4CF85E390E0089520915E0242
:1011F00026FFDDCF8AE290E0089520915E0226FF6F
:10120000D6CF81E390E0089582EE90E008950895AE
:101210000F931F93CF938C01FB018281811106C034
:10122000C1E08C2FCF911F910F910895C09149017A
:10123000C11125C00531104799F70E94070981E0C7
:10124000809349010E940E1D9093480180934701AD
:1012500010923C0110923E0110923D01109240010B
:1012600010923F01109242011092410110924401EC
:10127000109243011092460110924501D2CF809105
:101280004701909148010E941A1D883C910540F643
:1012900080913C01E82FF0E0EE0FFF1FE35CFE4F72
:1012A000118300838F5F80933C01C0E0BACF0C9420
:1012B0007E050C947F05CF93DF9385B7806885BF4B
:1012C00085B7806885BFA0E2B1E044E251E0C1E0AB
:1012D000D0E08D91E82FE295EF70F0E061A18F7082
:1012E0009E0101C0220F8A95EAF7922F90959623CE
:1012F00091A382A1822B82A34A175B0751F7A4E135
:10130000B1E040E251E0C1E0D0E08D91E82FE295FC
:10131000EF70F0E061A18F709E0101C0220F8A95ED
:10132000EAF7922F9095962391A382A1822B82A314
:101330004A175B0751F71092530110925201109215
:101340004B0110924A0110925501109254011092D3
:101350004D0110924C0110925701109256011092BB
:101360004F0110924E0110925901109258011092A3
:10137000510110925001DF91CF910C94F6064F92DB
:101380005F927F928F929F92AF92BF92CF92DF92A5
:10139000EF92FF920F931F93CF93DF939AE4492E1E
:1013A00091E0592E20E2E22E21E0F22E01E010E041
:1013B00099249394E201A990B9902E01DE011E9226
:1013C0001E92F70181917F01E82FE295EF70F0E026
:1013D00091A18F70980101C0220F8A95EAF7892F99
:1013E000822B81A382A1822E8094882182A380EA0D
:1013F0008A95F1F784E1C82E81E0D82E90E080E054
:10140000E60179916E01472F42954F7050E0EA0155
:1014100078A04D915C9111977F70E80102C0CC0FCC
:10142000DD1F7A95E2F7BE01672109F06AC0B801B5
:10143000082E02C0660F771F0A94E2F7462B572B3F
:1014400011965C934E9301968C309105C9F681A15B
:10145000882281A282A1282B22A38D919C91A8167B
:10146000B90641F090925A010E940E1D90935C01C2
:1014700080935B01D2E54D16D1E05D0609F09ACF6D
:1014800080915A01882351F180915B0190915C0118
:101490000E941A1D069710F180914A0190914B010C
:1014A000909353018093520180914C0190914D0192
:1014B000909355018093540180914E0190914F017A
:1014C0009093570180935601809150019091510162
:1014D000909359018093580110925A010E94F80686
:1014E00081E0DF91CF911F910F91FF90EF90DF90FE
:1014F000CF90BF90AF909F908F907F905F904F90D4
:10150000089570E060E09ACFE82FF0E0EE0FFF1F43
:10151000EE5AFE4F80819181089508959C01CB0180
:101520006BB1542F509556236BB1462B6FB7F8947F
:10153000820F931F2817390711F46FBF0895F9011F
:1015400071919F01E8E04BB9000000C077FF5BB9E3
:10155000770F000000C000C000C05BB900C0EA9572
:1015600091F7E8CFFC019AB1942B9AB99B01220F15
:10157000331F620F731FCF010E948E0A87EC90E029
:101580000197F1F700C00000089540E20C94B20A00
:10159000AF92BF92CF92DF92EF92FF920F931F9381
:1015A000CF93DF937C01E901842F242F662309F474
:1015B0003FC0C42ED12C8FEF90E0861B9109489F2D
:1015C0008001499F100D1124212F812F9927C81ABE
:1015D000D90A9CE3A92EB12CC701B5010E9481292B
:1015E000FB01BC01C69EC001C79E900DD69E900D0A
:1015F0001124B5010E948129E330F10509F443C0AB
:1016000080EFE816F10468F4E130F10591F13297CA
:10161000A1F18CE3E816F10440F180E020E040E025
:1016200007C0E430F10599F1842F861B3597A9F79F
:10163000E42FF0E0E754F84F4491E22FF0E0E75454
:10164000F84F9491E82FF0E0E754F84FE491498384
:101650009883EA83DF91CF911F910F91FF90EF90D4
:10166000DF90CF90BF90AF900895812F262F210F4C
:10167000DFCF812F242F461BDBCF862F810FE42F56
:10168000412F2E2FD5CFE42FE61B842FF9CF842FA7
:10169000462F410FCDCF88E090E00C94B729AB01E5
:1016A000BC0188E090E00C94D529CF93DF9300D063
:1016B00000D0CDB7DEB7E4E3F2E083E080831182AF
:1016C0008FEF828383838091340290913502A091C1
:1016D0003602B091370289839A83AB83BC83BC0105
:1016E000CD010F900F900F900F90DF91CF910C9440
:1016F0004F0B80913402ECE3F2E080FF06C06AE019
:1017000070E08CE392E00C94C50A11821082128280
:10171000339682E0EA35F807C1F7F1CFECE3F2E067
:10172000818360834283339692E0EA35F907C1F7FB
:101730000C94790BEF92FF920F931F93CF93DF934B
:1017400000D00F92CDB7DEB7182FE92EF62E042F5A
:101750008091340290913502A0913602B091370207
:101760008093380290933902A0933A02B0933B02DF
:101770008091340280FF1FC09E012F5F3F4F812F59
:101780009E2D0E94C80A8091380210FB87F9809331
:1017900038021695809139028078182BE0FA17F9F3
:1017A00010933902F0923A0200933B024B81698117
:1017B0008A810E948E0B0F900F900F90DF91CF9136
:1017C0001F910F91FF90EF9008950F931F93CF9368
:1017D000DF9300D000D00F92CDB7DEB789839D8311
:1017E000062F142F8091340280FF54C0982F9E77CB
:1017F000923091F589819D810E949A0B80913402EB
:10180000B981B0FB87F980933402B6958091350297
:101810008078B82B8D8180FBB7F9B09335020093A7
:101820003602109337028091340290913502A091D4
:101830003602B091370289839A83AB83BC83BC01A3
:10184000CD010F900F900F900F900F90DF91CF91DF
:101850001F910F910C944F0B982F96959F732EE329
:10186000290F2F73243018F410913702C7CF965CDC
:101870009F73993018F6881F8827881F909135022A
:101880009D83990F982B9983AD81A7FBAA27A0F977
:10189000AD83B4CF0F900F900F900F900F90DF910A
:1018A000CF911F910F910895E4E3F2E02081221F70
:1018B0002227221F30913502432F440F842F822B81
:1018C00037FB992790F9089668E671E00E94952900
:1018D000438162810C94E50B20913402221F222760
:1018E000221F30913502432F440F842F822B37FB68
:1018F000992790F98830910540F4805A9E4F409185
:101900003702609136020C94E50B089768E671E0A7
:101910000E949529F4CF60913602683F90F4685F89
:1019200080913402881F8827881F90913502292FC3
:10193000220F97FB992790F940913702822B0C9444
:10194000E50B6FEFEDCF60913602683090F0685094
:1019500080913402881F8827881F90913502292F93
:10196000220F97FB992790F940913702822B0C9414
:10197000E50B60E0EDCF40913702483F90F4485FBF
:1019800080913402881F8827881F90913502292F63
:10199000220F97FB992790F960913602822B0C94C5
:1019A000E50B4FEFEDCF40913702483090F04850B3
:1019B00080913402881F8827881F90913502292F33
:1019C000220F97FB992790F960913602822B0C9495
:1019D000E50B40E0EDCFCF93DF9300D000D0CDB743
:1019E000DEB79091340290FF47C09178811132C0E8
:1019F0009260909334028091340290913502A091CC
:101A00003602B091370289839A83AB83BC83BC01D1
:101A1000CD010E944F0B80913402982F9E77923017
:101A200009F510927201881F8827881F909135024E
:101A3000292F220F97FB992790F940913702609147
:101A40003602822B0F900F900F900F90DF91CF9165
:101A50000C94E50B893110F09063CBCF8F73880F16
:101A6000982BC7CF982F9695925C9F739631D8F696
:101A700091E090937201D7CF0F900F900F900F903D
:101A8000DF91CF91089580910702816080930702D2
:101A900081E0809373010E946F1C811104C00E9439
:101AA0004E1C0E94550B0E944B0B609334027093A6
:101AB000350280933602909337026E7761F40E946C
:101AC000550B0E944B0B6093340270933502809348
:101AD00036029093370281E0809372018091340244
:101AE00080FF04C086958F730C94EB0C0895809151
:101AF000340286958F738F5F893108F081E00C94F2
:101B0000EB0CCF93DF9300D000D0CDB7DEB7909130
:101B10003402892F8E7F90FF816080933402809100
:101B2000340290913502A0913602B0913702898338
:101B30009A83AB83BC83BC01CD010E944F0B809183
:101B4000340280FF0AC086958F730F900F900F901C
:101B50000F90DF91CF910C94EB0C109272019FEFDC
:101B6000A0E7B2E09150A040B040E1F700C0000013
:101B70000F900F900F900F90DF91CF910C94790BF5
:101B8000CF93C82F80917001909171010E941A1D0E
:101B9000EC2FF0E0EB54F94FE491E817190609F047
:101BA00010F50E940E1D9093710180937001E091D9
:101BB0006F01F0E0E754F94F449180913402881F9F
:101BC0008827881F90913502292F220F97FB99278C
:101BD00090F960913602822B0E949A0B80916F01DE
:101BE0008F5F80936F01CF910895CF93C82F80911D
:101BF0006D0190916E010E941A1DEC2FF0E0EE54E1
:101C0000F94FE491E817190609F0E8F40E940E1D57
:101C100090936E0180936D0140913702609136027E
:101C200080916B0190916C010E949A0B80916B01E5
:101C300090916C01019668E671E00E948129909371
:101C40006C0180936B01CF910895CF92DF92EF9258
:101C5000FF921F93CF93DF93182F8091690190918A
:101C60006A010E941A1DE12FE695F0E0EE54F94F4B
:101C7000E491E817190609F0C0F50E940E1D909333
:101C80006A01809369018CE3E82E82E0F82ED0E0AF
:101C9000C0E098E6C92EDD24D3948091670190912D
:101CA00068018C0F9D1FB6010E9481299701409108
:101CB0003702609136020E94C80AA49683E0E80EBB
:101CC000F11CC83681E0D80741F70E94790B80915A
:101CD00067019091680110FF10C00196BE010E943B
:101CE00081299093680180936701DF91CF911F91C3
:101CF000FF90EF90DF90CF9008950197F2CFAF92D1
:101D0000BF92CF92DF92EF92FF920F931F93CF93E8
:101D1000DF93C82FDD24DA9480FD02C0DD24D39444
:101D200080916501909166010E941A1DC695EC2F65
:101D3000F0E0E155F94FE491E817190611F008F0C9
:101D400053C00E940E1D9093660180936501CCE301
:101D5000D2E010E000E097E0A92EB12C19821882A1
:101D60001A8287E0E82EF12CC12C809164018C0D41
:101D700087FD865F082E000C990B80179107E9F408
:101D8000209137022E9DC0012F9D900D1124B50189
:101D90000E949529462F80913402881F8827881F2A
:101DA00090913502592F550F97FB992790F99E0175
:101DB00060913602852B0E94C80ACD0C81E0E81A9A
:101DC000F10899F60F5F1F4F23960A30110531F67F
:101DD0000E94790B8091640191E0D91212C08111A7
:101DE0000EC089E080936401DF91CF911F910F9124
:101DF000FF90EF90DF90CF90BF90AF90089581500B
:101E0000F1CF90E00196B8010E949529EBCFBF92E7
:101E1000CF92DF92EF92FF920F931F93CF93DF93B6
:101E2000CDB7DEB76E970FB6F894DEBF0FBECDBF4D
:101E3000182F80916201909163010E941A1DE12F79
:101E4000F0E0E455F94FE491E817190611F008F0B5
:101E50007AC00E940E1D90936301809362018E01EF
:101E60000F5F1F4FF12CE12C6801D80111961C92D5
:101E700011971C9212961C92B12C909100018091A6
:101E80006101B99E800D11248A300CF089E087FD34
:101E900080E0082E000C990B8E159F05A1F480910F
:101EA0003402881F8827881F90913502592F550FBB
:101EB00097FB992790F9980140913702609136027B
:101EC000852B0E94C80AB394B7E0BB12D6CFEFEFC0
:101ED000EE1AFE0A0D5F1F4FFAE0EF16F10429F625
:101EE0002CE332E009E010E05AE0E52EF12CC801C5
:101EF000B7010E949529FC01EE0FFF1FE80FF91FA3
:101F0000EC0DFD1D8181D90111968C931197808173
:101F10008C93828112968C930F5F1F4F2D5F3F4FE2
:101F20000331110521F70E94790B909100018091F6
:101F300061019130E1F48A3FB4F489EF809361014B
:101F40008FEF809300016E960FB6F894DEBF0FBE40
:101F5000CDBFDF91CF911F910F91FF90EF90DF9058
:101F6000CF90BF900895815080936101ECCF813173
:101F70002CF080E18093610181E0E3CF8F5FF4CFAB
:101F8000CF93DF9380915F01909160010E941A1DB1
:101F9000883E934028F10E940E1D9093600180932B
:101FA0005F0180915D0190915E010196817099279A
:101FB00090935E0180935D01CCE3D2E09E0140915D
:101FC00037026091360290E080E00E94C80A2396B2
:101FD00082E0CA35D80791F7DF91CF910C94790B45
:101FE000DF91CF91089580917201882371F18091E2
:101FF000340286958F739EE3980F9F73943018F484
:1020000082500C94C00D9AE3980F9F73933018F48C
:1020100086500C94F50D97E3980F9F73963018F443
:1020200089500C94250E91E3980F9F73963018F405
:102030008F500C947F0E9BE2980F9F73933018F48F
:1020400085510C94070F0C94C00F0895909379015B
:10205000809378010895E0917801F09179013097AB
:1020600021F00190F081E02D099480E00895E09145
:102070007801F0917901309721F00280F381E02D11
:1020800009940895E0917801F0917901309721F059
:102090000480F581E02D0994089520917601309116
:1020A00077012817390771F09093770180937601B3
:1020B000E0917801F0917901309721F00680F78165
:1020C000E02D09940895209174013091750128172D
:1020D000390771F09093750180937401E091780154
:1020E000F0917901309721F00084F185E02D099479
:1020F000089508950C9479100E94051D0E945B09B3
:102100000E94CF1D0C94430D5F926F927F928F922D
:102110009F92AF92BF92CF92DF92EF92FF920F9376
:102120001F93CF93DF9300D000D00F92CDB7DEB7CF
:102130000E94BF099BE7A92E91E0B92E10E000E0B4
:1021400088248394912C502E802F0E94840A7C0135
:10215000F501C190D1905F01C816D90609F45DC0A0
:102160008091070281FD0E948D0A90E080E0CE24DC
:10217000DF243401082E02C0660C771C0A94E2F7B3
:10218000960126213721232B09F442C089835A82E4
:10219000E620F72081E0EF2809F480E08B830E949D
:1021A0000E1D8160782F9D838C8349815A816B81BC
:1021B0008D810E943911000F111FF801E558FE4F63
:1021C0008081918168267926718260820E947C20BC
:1021D0000E942B1090917A018917B1F10E942B1067
:1021E00080937A010F900F900F900F900F90DF91D6
:1021F000CF911F910F91FF90EF90DF90CF90BF9004
:10220000AF909F908F907F906F905F900C94FC06A2
:1022100001968C30910509F0ACCF0F5F1F4F043051
:10222000110509F090CF8FEF89838A831B820E946A
:102230000E1D8160782F9D838C8349815A816B812B
:102240008D810E943911C2CF0F900F900F900F9087
:102250000F90DF91CF911F910F91FF90EF90DF9042
:10226000CF90BF90AF909F908F907F906F905F9036
:102270000895CF93DF93CDB7DEB72B970FB6F894C1
:10228000DEBF0FBECDBF4F83588769877A878B87A4
:102290001E8285E0FE013796DE01119601900D92B7
:1022A0008A95E1F749815A816B817C818D819E817C
:1022B0002B960FB6F894DEBF0FBECDBFDF91CF9146
:1022C0000C94B017882309F4D8C0823871F40E94A6
:1022D0002B1081FDD2C089E30E94551B0E941F1C58
:1022E00089E30E94921B0C941F1C833859F40E94AE
:1022F0002B1080FDC2C083E50E94551B0E941F1C4D
:1023000083E5EFCF843859F40E942B1082FDB5C0CD
:1023100087E40E94551B0E941F1C87E4E2CF9CEFBC
:10232000980F913A18F40E94551BDDCF90E2980F58
:10233000983050F4877091E001C0990F8A95EAF7C0
:10234000892F0E94D61BCFCF9BE5980F933070F456
:10235000853A31F0863A39F083E890E00C944D10DC
:1023600081E890E0FBCF82E890E0F8CF98E5980F05
:10237000953108F082C0883A09F440C0893A09F4DE
:1023800040C08A3A09F440C08B3A09F440C08C3A04
:1023900009F440C08B3B09F440C08C3B09F440C0B9
:1023A0008D3A09F440C0803B09F440C08E3A09F4EC
:1023B00040C08F3A09F440C0813B09F440C0823BE1
:1023C00009F440C0833B09F440C0843B09F440C099
:1023D000853B09F440C0863B09F440C0873B09F4C3
:1023E00040C0883B09F440C0893B09F440C08A3BA7
:1023F00009F440C090E080E00C94631082EE90E01D
:10240000FBCF89EE90E0F8CF8AEE90E0F5CF85EB38
:1024100090E0F2CF86EB90E0EFCF83EB90E0ECCF53
:1024200084EB90E0E9CF87EB90E0E6CF8CEC90E096
:10243000E3CF8DEC90E0E0CF83E891E0DDCF8AE858
:1024400091E0DACF82E991E0D7CF84E991E0D4CF6F
:1024500081E292E0D1CF83E292E0CECF84E292E0BB
:10246000CBCF85E292E0C8CF86E292E0C5CF87E28B
:1024700092E0C2CF8AE292E0BFCF0895882309F4A8
:102480004BC0823871F40E942B1081FF45C089E354
:102490000E94551B0E941F1C89E30E94921B0C94F2
:1024A0001F1C833859F40E942B1080FF35C083E530
:1024B0000E94551B0E941F1C83E5EFCF843859F4FE
:1024C0000E942B1082FF28C087E40E94551B0E94A7
:1024D0001F1C87E4E2CF9CEF980F913AF0F290E254
:1024E000980F983050F4877091E001C0990F8A9549
:1024F000EAF7892F0E94DC1BD2CF9BE5980F93301F
:1025000020F490E080E00C944D10885A853120F43E
:1025100090E080E00C9463100895882321F00E94DD
:10252000D61B0C941F1C0895882321F00E94DC1BED
:102530000C941F1C08958F929F92AF92BF92DF92CE
:10254000EF92FF920F931F93CF93DF9300D000D0B1
:102550000F92CDB7DEB77C016D837983FC010581D5
:1025600002950F70128111110E94F51B0E944E1BE3
:10257000D82E882371F01123A1F08D81805E8830E0
:1025800080F082E00E94381B0E944E1B91E0D82E02
:10259000D926E981E295EF70F0E0EC5EF54D0C9400
:1025A000A929D12CF6CF09810F70F981F07F11F0A4
:1025B0000295007F1123B1F0002361F08D81805ED0
:1025C000883018F02D81211109C0802F0E94D61B60
:1025D0000E941F1C8D810E94621115C0802F0E94D5
:1025E000E71BF6CF8D810E943E12002361F08D81A2
:1025F000805E883018F03D81311129C0802F0E9403
:10260000DC1B0E941F1CDD2009F4D3C10E942B1B80
:1026100080FDCFC1F70112820E94251B0E946E1916
:10262000C7010E94EA140E94251B0F900F900F9083
:102630000F900F90DF91CF911F910F91FF90EF902E
:10264000DF90BF90AF909F908F900C949019802F47
:102650000E94ED1BD6CF49814F70B42E5981507F17
:10266000503219F0B29480EFB8228D81882369F03E
:10267000813029F1112369F1002359F0F701858197
:1026800080FFA8CF8F70858304C0112361F00111F2
:1026900004C08B2D0E948D12B6CF8B2D0130D1F747
:1026A0000E94091CB0CF011106C00E940C1C8B2D8A
:1026B0000E949412A8CF013009F4A5CFF6CF1123C0
:1026C00021F0063008F09FCFE4CF053008F09BCF13
:1026D000EECF002361F38D810E943E1294CF898159
:1026E00086958695837069F0813009F08CCF8D8155
:1026F00099819370111102C090E080E00E946310F4
:1027000082CF8D8199819370111102C090E080E099
:102710000E944D1078CF8D81112329F00E948A1FCD
:102720000E94712070CF0E94F21FFACF89818370BE
:1027300009F05FC0111167CF2D8122952695277072
:10274000220F220F8D818F7090E0B0E0A0E04C014D
:102750005D01022E04C0880C991CAA1CBB1C0A94A3
:10276000D2F7FD8160E070E0CB01F4FF0FC06FE0B5
:1027700070E080E090E004C0660F771F881F991F0B
:102780002A95D2F760957095809590952981269528
:10279000269523702D832230B1F0233019F19B014F
:1027A000AC01282939294A295B2929833A834B839B
:1027B0005C833D8169817A818B819C813130B1F06C
:1027C0000E94FB1820CF9B01AC01282939294A29F6
:1027D0005B2929833A834B835C83CA01B9010E9438
:1027E000251911CF0E94FB18C501B4010E94D11810
:1027F0000ACF8695112311F089818170882309F40D
:1028000002CF2D81229526952770220F220F8D81D0
:102810008F7090E0B0E0A0E04C015D01022E04C09A
:10282000880C991CAA1CBB1C0A94D2F73D8160E05D
:1028300070E0CB0134FF0FC06FE070E080E090E00B
:1028400004C0660F771F881F991F2A95D2F76095DD
:1028500070958095909549814695469543704D8336
:102860004230B1F0433019F19B01AC0128293929DC
:102870004A295B2929833A834B835C833D816981A3
:102880007A818B819C813130B1F00E94011ABBCEDC
:102890009B01AC01282939294A295B2929833A83DC
:1028A0004B835C83CA01B9010E942B1AACCE0E94F3
:1028B000011AC501B4010E94D719A5CE3D81323F4E
:1028C00009F447C080F4303F79F1313FD9F1832FCB
:1028D000805E8031D0F0112309F456C001117ACE08
:1028E00089818F7133C04D81433FD1F1443F99F7C6
:1028F000112309F43FC089818F7189830E946E1969
:1029000063E089810E942F1B7ECE5D815F705D83B5
:1029100089818F71112321F00E946E198D81BACEA9
:102920000E9490198D81C4CE112341F0053008F02A
:102930006ACE89818F710E94B51965CE063008F084
:1029400062CEF7CF89818F71112339F00E946E1901
:102950005ACE89818F711123C9F30E94901953CEE9
:10296000112329F089818F710E9459194CCE0E9440
:102970004F1949CE81E00E94381B023008F443CE43
:1029800082E00E94381B3FCE0111A5CE89818F7154
:10299000E4CF49814F706D81C7010E947B050E9481
:1029A0004A1831CE49814F706D81C7010E94FE06E1
:1029B0002ACE0F900F900F900F900F90DF91CF9134
:1029C0001F910F91FF90EF90DF90BF90AF909F907D
:1029D0008F9008950F931F93CF93DF93EC018B811A
:1029E0009C81892B29F08881998189238F3F29F443
:1029F000DF91CF911F910F910895CE010E94940510
:102A00008823B1F3688179818A810E94FB1A8C0145
:102A10000E94551A0E94C618B801CE01DF91CF91CD
:102A20001F910F910C949B120E94F51B0E94061C93
:102A30000E94C81B0E941F1C0E9462210E947120DC
:102A400090E080E00E944D1090E080E00C946310D4
:102A50000E94E41B0C9414150E94EF1A282F892F52
:102A600082958F70903C80F48A30B0F4843020F4EA
:102A7000823090F480E008958630E1F781E0203ED6
:102A800088F0213FB9F70EC08C3011F08F3091F7EC
:102A900093FB882780F9089581E0203F39F018F4EE
:102AA000203E40F70895243F29F7FCCF0895CF93A7
:102AB000DF9300D000D00F92CDB7DEB70F900F900C
:102AC0000F900F900F90DF91CF910895CF93DF93E8
:102AD00000D000D000D0CDB7DEB726960FB6F89460
:102AE000DEBF0FBECDBFDF91CF9108951F93CF936F
:102AF000DF93E091840116E0809185018E1304C07C
:102B0000DF91CF911F910895CE2FD0E01E9FF0014D
:102B10001124EA57FE4F4081518162817381848183
:102B200095810E946615FE013196E770E5CF4091D0
:102B3000B6015091B7016091B8017091B9018091CF
:102B4000BA019091BB010C9466151F93CF93DF934C
:102B50008091BB01807FC1F48091B8018823A1F0EE
:102B600080918401C09185016091B6017091B70197
:102B70004091B9015091BA01D62FD723DA01A0951F
:102B8000B09516E0C81304C0DF91CF911F9108954E
:102B900090E04115510511F0DF3F31F40196877047
:102BA000F1CF2A0F3B1F17C0189FF001199FF00D9E
:102BB0001124EA57FE4F21812713F0CF20812613DD
:102BC000EDCF22812111EACF2381348124173507EB
:102BD00040F3241B350B283C310500F72091BB0145
:102BE0002F7020612093BB0126E0289FF001299FD0
:102BF000F00D1124E557FE4F80818F708061808336
:102C000086EB91E00E94EA14DF91CF911F910C9422
:102C100076159F92AF92BF92CF92DF92EF92FF9282
:102C20000F931F93CF93DF93CDB7DEB72B970FB6DC
:102C3000F894DEBF0FBECDBF8C0185E0F801DE0148
:102C4000179601900D928A95E1F7D8014C91119653
:102C50005C9111971296EC9012978091B901909126
:102C6000BA01009709F46BC12091B6013091B70108
:102C7000632F62236F3F09F462C11396CD90DC90FD
:102C80009090B801992009F4F8C0C816D90608F444
:102C90003FC0F601E81BF90BCF01FF24F394883CF9
:102CA000910508F0F12C86EBA82E81E0B82E8091DA
:102CB000BB01982F907FFF2009F4B7C0911180C00D
:102CC000FE2C35132AC0241328C0E11026C08F70B3
:102CD00080618093BB010E949715C5010E94EA1490
:102CE0008091BB01D80115968C938F2D2B960FB632
:102CF000F894DEBF0FBECDBFDF91CF911F910F9132
:102D0000FF90EF90DF90CF90BF90AF909F9008958D
:102D1000809590958C0D9D1DC0CFCD2829F0842FD6
:102D200085238F3F09F019C180E0B82FB170DB2EE9
:102D3000E09184012091850136E080FD1CC0EE20E9
:102D4000A1F28091BB0181608093BB01F12CCDCFBA
:102D50008E2F90E03E9FF0011124EA57FE4F6181D3
:102D6000651306C06081641303C062816E11E7CFF2
:102D7000FC013196E770E213EBCF4F8358878F81C8
:102D800098850E94EF1A292F22952F70903260F0BB
:102D9000225F2F70223078F49F7051F0F8019581F6
:102DA000907F31F4D12C0AC09F7011F08823D1F3A9
:102DB000805E8830B8F3C8010E94EA14FD2C95CFDC
:102DC000351306C0241304C0D801EE2009F47BC0DB
:102DD0004F8358878F8198850E942C15882309F48A
:102DE000B8C0EE2009F4B5C08091BB01803270F00C
:102DF0002091B6013091B7013A8329831B82DD828D
:102E0000CC828E83CE0101960E94EA1486E0F801FE
:102E1000A6EBB1E001900D928A95E1F70E94A5150D
:102E20000E949715FF24F39460CF911113C07C2D5D
:102E3000DB86CA866E2D8B850E94571586EB91E046
:102E40000E94EA1486E0F50111928A95E9F70E9442
:102E500097154BCF3513BCCF2413BACFE110B8CFA1
:102E6000D80115968C93C8010E94EA1486E0F501FA
:102E700011928A95E9F7F92C38CFC816D90688F14E
:102E8000B601681B790BCB01F12C883C910508F049
:102E900047C0FE2CEE2009F45CC0351330C024136B
:102EA0002EC08091BB0180FD21C0982F907FF1F052
:102EB000D80115968C931597903F39F0982F907FF5
:102EC000905F8F70892B15968C93C8010E94EA142D
:102ED00086E0F801A6EBB1E001900D928A95E1F74A
:102EE000B6CF809590958C0D9D1DCECF86E0F801D4
:102EF000A6EBB1E001900D928A95E1F7F6CE4F83F3
:102F000058878F8198850E942C1581117FCF8091E1
:102F1000BB0181608093BB01C8010E94EA14E5CE29
:102F20007C2DDB86CA866E2D8B850E94571586E028
:102F3000E6EBF1E0DF011D928A95E9F788CFEE20FC
:102F400041F04F8358878F8198850E942C158111FD
:102F50005DCFC8010E94EA1465CF81E08E25E5CEE1
:102F60001F93CF93DF93CDB7DEB72C970FB6F894AE
:102F7000DEBF0FBECDBF4F83588769877A878B87A7
:102F80009C87CE0107960E940916882369F08A85DE
:102F90009B85892B39F04F815885842F85238F3F5E
:102FA00009F071C016E05FC086E0FE013796DE01D1
:102FB000119601900D928A95E1F78A859B85892B60
:102FC00089F388859F8189238F3F61F32091850153
:102FD00030E0C90101968770992740918401481714
:102FE000190671F40E94281510928501109284012F
:102FF00086E0E6EBF1E0DF011D928A95E9F7D2CF9A
:1030000096E0929FD001939FB00D1124AA57BE4F16
:10301000FE01319601900D929A95E1F7809385011A
:103020000E947615BFCF819FC00111248A579E4F01
:103030000E9409168823E9F0E09184011E9FF001A7
:103040001124EA57FE4F408151816281738184814E
:1030500095810E9466158091840190E001968770A9
:10306000992780938401809184019091850189132F
:10307000DACF2C960FB6F894DEBF0FBECDBFDF912E
:10308000CF911F91089569857A858B859C850E94D3
:10309000661588CFEF92FF920F931F93CF93DF9324
:1030A0008C01892B89F0F12CEE24E394E801219620
:1030B000F8018491843709F457C0A0F4823009F4F0
:1030C0003EC048F48130D1F0DF91CF911F910F9134
:1030D000FF90EF9008959CEF980F9037A8F70E940B
:1030E00062110AC0853709F44CC09CE7980F9037ED
:1030F00058F78F770E943E128E0116C00E5F1F4F49
:10310000FE01849190E2980F983060F48770FE2D54
:1031100001C0FF0F8A95EAF78F2F0E94F81B0E94CB
:103120001F1C02C00E9462118F2D815008F4BECF77
:10313000EFE9FFE03197F1F700C00000F6CF0E5F36
:103140001F4FFE01849190E2980F983050F48770E1
:10315000FE2D01C0FF0F8A95EAF78F2F0E94FE1BFC
:10316000DECF0E943E12E0CF0E5F1F4FFE01C491E2
:10317000C150D0F28FE99FE00197F1F700C0000045
:10318000F7CF0E5F1F4FFE01F490CECF08956093EE
:10319000DE017093DF018093E0019093E1010C94D4
:1031A0001415CF93DF9300D000D0CDB7DEB769837D
:1031B0007A838B839C838091DE019091DF01A091C3
:1031C000E001B091E10129813A814B815C81822B40
:1031D000932BA42BB52B8093DE019093DF01A0935A
:1031E000E001B093E1010F900F900F900F90DF91ED
:1031F000CF910C941415CF93DF9300D000D0CDB7AE
:10320000DEB769837A838B839C838091DE01909102
:10321000DF01A091E001B091E10129813A814B8168
:103220005C8182239323A423B5238093DE019093B2
:10323000DF01A093E001B093E1010F900F900F9098
:103240000F90DF91CF910C941415CF93DF9300D0A2
:1032500000D0CDB7DEB769837A838B839C8380915E
:10326000DE019091DF01A091E001B091E10129819F
:103270003A814B815C8182279327A427B5278093CD
:10328000DE019093DF01A093E001B093E1010F9084
:103290000F900F900F90DF91CF910C941415109216
:1032A000DA011092DB011092DC011092DD010C9426
:1032B000141541E050E060E070E004C0440F551F79
:1032C000661F771F8A95D2F74093DA015093DB018E
:1032D0006093DC017093DD010C941415282F81E0BC
:1032E00090E0A0E0B0E004C0880F991FAA1FBB1FA8
:1032F0002A95D2F74091DA015091DB016091DC010F
:103300007091DD01842B952BA62BB72B8093DA01CE
:103310009093DB01A093DC01B093DD010C941415B4
:1033200041E050E060E070E004C0440F551F661FAC
:10333000771F8A95D2F7409550956095709580914A
:10334000DA019091DB01A091DC01B091DD018423D1
:103350009523A623B7238093DA019093DB01A093F2
:10336000DC01B093DD010C941415282F81E090E06E
:10337000A0E0B0E004C0880F991FAA1FBB1F2A95C8
:10338000D2F74091DA015091DB016091DC0170913C
:10339000DD0184279527A627B7278093DA0190932C
:1033A000DB01A093DC01B093DD010C941415CF93E5
:1033B000DF9300D000D0CDB7DEB769837A838B83EB
:1033C0009C838091DA019091DB01A091DC01B091A6
:1033D000DD0129813A814B815C81822B932BA42BC7
:1033E000B52B8093DA019093DB01A093DC01B093BD
:1033F000DD010F900F900F900F90DF91CF910C9403
:103400001415CF93DF9300D000D0CDB7DEB769831A
:103410007A838B839C838091DA019091DB01A09168
:10342000DC01B091DD0129813A814B815C818223ED
:103430009323A423B5238093DA019093DB01A09317
:10344000DC01B093DD010F900F900F900F90DF9192
:10345000CF910C941415CF93DF9300D000D0CDB74B
:10346000DEB769837A838B839C838091DA019091A4
:10347000DB01A091DC01B091DD0129813A814B8112
:103480005C8182279327A427B5278093DA01909344
:10349000DB01A093DC01B093DD010F900F900F9042
:1034A0000F90DF91CF910C9414150895E82F2CE024
:1034B000929FE00D11248E2F877041E001C0440FD0
:1034C0008A95EAF7E695E695E69585E0E89FF001AE
:1034D0001124E454FE4F30E020E070E05191DF0110
:1034E0001197CB01022E02C0969587950A94E2F7B8
:1034F000817081958527842385278C932F5F3F4F8B
:103500002530310559F70895E82F2CE0929FE00D02
:1035100011249E2F9770E695E695E69585E0E89F45
:10352000F0011124E454FE4F50E040E080E021918E
:1035300030E0092E02C0369527950A94E2F72170F3
:103540003327042E01C0220F0A94EAF7822B4F5F23
:103550005F4F4530510559F70895BF92CF92DF92E2
:10356000EF92FF920F931F93CF93DF938C01C09044
:10357000DA01D090DB01E090DC01F090DD01809178
:10358000DE019091DF01A091E001B091E101C82A34
:10359000D92AEA2AFB2ACFE1D0E0BC2ED701C60106
:1035A0000C2E04C0B695A795979587950A94D2F7E7
:1035B00080FD0EC0219788F7B12C8B2DDF91CF9124
:1035C0001F910F91FF90EF90DF90CF90BF900895E3
:1035D000B8018C2F0E941B07019761F3EECFCF93A8
:1035E000DF93D82FC92F0E94AD1A6D2F7C2FDF914A
:1035F000CF910C941B071F93CF93DF93162FD72FD8
:1036000090918301992339F0862F972FDF91CF91E5
:103610001F910C94EF1A882391F0862F972F0E9408
:10362000AD1AC82F682F812F9D2F0E94561A612F27
:103630007D2F8C2FDF91CF911F910C941B07862F2C
:10364000972F0E94841AC82FF2CF8091E2018595AE
:103650008595859508958091E2018770089598E099
:10366000899F90011124622B6093E2010C946E19E2
:103670009091E201809589238093E201282F2770A1
:1036800061F4282F082E000C330B9217130629F033
:103690008595859585950C94901908959091E201F2
:1036A000977081E009F480E00895909113019923C7
:1036B000E1F090915E0297FF18C0E82FE695E6953D
:1036C000E695EF3139F12091010130910201E20FCD
:1036D000F32FF11D877021E030E001C0220F8A95A1
:1036E000EAF78181822B8183089520910101309135
:1036F0000201F90132969FEF40E05191851751F098
:103700009F3F19F4511101C0942F4F5F4E31A9F71B
:103710009F3F09F40895290F311D97FD3A95F9014E
:103720008283089590911301992301F190915E0293
:1037300097FF1CC0E82FE695E695E695EF3139F145
:103740002091010130910201E20FF32FF11D8770EA
:1037500021E030E0A90102C0440F551F8A95E2F72D
:10376000CA01809591818923818308952091010167
:1037700030910201F9013296205E3F4F91918913F9
:1037800003C0DF0111971C92E217F307B9F7089500
:1037900081E090E0E0910101F0910201E80FF91F52
:1037A0001082019680329105A9F708959091060242
:1037B000982B909306020895982F90958091060279
:1037C000892380930602089510920602089590912D
:1037D0000502982B909305020895982F909580915B
:1037E0000502892380930502089510920502089529
:1037F00090910402982B909304020895982F90952D
:103800008091040289238093040208951092040297
:1038100008958093E30108951092E30108952091A3
:10382000010130910201F9013196205E3F4F80E0A5
:10383000919191118F5FE217F307D1F70895E0910D
:103840000101F0910201809106028083E091010163
:10385000F0910201808190910502892B8083E09193
:103860000101F0910201808190910402892B8083F3
:103870009091E301992361F0E0910101F09102013F
:103880008081892B80830E940F1C81111092E3019B
:1038900080910101909102010C9437106DEE7EEF42
:1038A00090E080E00E94E12960E082E090E00E94E8
:1038B000C32960E083E090E00E94C32960E084E0D7
:1038C00090E00E94C32960E085E090E00E94C32957
:1038D00040E050E0BA0188E090E00C94D52990E0F7
:1038E00080E00E94BD299C0181E02D3E3E4F09F001
:1038F00080E0089582E090E00C94AF29682F82E088
:1039000090E00C94C32983E090E00C94AF29682FD9
:1039100083E090E00C94C32984E090E00C94AF29FC
:10392000682F84E090E00C94C32980916402843075
:1039300039F11092080288E190E020E40FB6F89483
:10394000A895809360000FBE2093600080E00E94E5
:10395000FC0683B7817F846083BF83B7816083BFA8
:103960007894889583B78E7F83BF0FB6F894A89517
:1039700080916000886180936000109260000FBEAB
:10398000089508950895CF930E94C11C0E94BF0915
:103990000E94C21CC0E08C2F0E94840A892B31F443
:1039A000CF5FC430C1F780E0CF91089581E0FCCFB4
:1039B0000E9428150E942B100C94FC061F921FB623
:1039C0001F9211248F939F93AF93BF93809108020E
:1039D000811113C080915A0290915B02A0915C0208
:1039E000B0915D024196A11DB11D80935A02909342
:1039F0005B02A0935C02B0935D02BF91AF919F9177
:103A00008F911F901FBE1F90189582E084BD93E098
:103A100095BD9AEF97BD80936E0008952FB7F894E7
:103A200080915A0290915B02A0915C02B0915D027C
:103A30002FBF0895CF92DF92EF92FF929C014FB774
:103A4000F89480915A0290915B02A0915C02B0912F
:103A50005D024FBF6C017D01EE24FF24A90170E0DF
:103A600060E0C416D506E606F70638F0821B930B15
:103A7000FF90EF90DF90CF9008950197F7CF1F92BE
:103A80001FB61F9211248F939F93AF93BF93809182
:103A90005A0290915B02A0915C02B0915D02019686
:103AA000A11DB11D80935A0290935B02A0935C020A
:103AB000B0935D02BF91AF919F918F911F901FBEF8
:103AC0001F9018950E945825F8942FEF87EA91E6E9
:103AD000215080409040E1F700C0000087E090EB6B
:103AE000DC0180936D0290936E02A0936F02B093FD
:103AF000700288E19CE00FB6F894A895809360006E
:103B00000FBE90936000FFCFAF92BF92CF92DF9233
:103B1000EF92FF920F931F93CF93C0E0AA24A39438
:103B2000B12CE82EF12C8C2F0E94840A6C0110E03D
:103B300000E0C501002E02C0880F991F0A94E2F729
:103B40008C219D21892B99F0602F7C2F80E00E9491
:103B5000FF06E816F90659F481E0CF911F910F9105
:103B6000FF90EF90DF90CF90BF90AF9008950F5FE0
:103B70001F4F0C301105E9F6CF5FC430A1F680E08D
:103B8000ECCFCF93C82F8CE20E94841D882321F0B4
:103B90008C2FCF910C94841D80E0CF910895CF930A
:103BA000DF9300D000D0CDB7DEB70E946F1C81112B
:103BB00002C00E944E1C95E6998308C00E94BF096E
:103BC0008FE39CE90197F1F700C00000A981A150A3
:103BD000A983A111F3CF89E20E94C11D811110C1F7
:103BE0008AE20E94C11D81110E944E1C85E00E9444
:103BF000C11D81110E94621D0E947A1C80930702E0
:103C000087E00E94C11D882371F08BE10E94C11DD5
:103C1000882309F4D1C090910702892F8D7F91FFED
:103C2000826080930702809107020E947E1C0E949E
:103C30008C1C90E090935F0280935E0280EE0E9465
:103C4000C11D882341F090915E02892F8E7F90FFE5
:103C5000816080935E0289E30E94C11D882341F048
:103C600090915E02892F8D7F91FF826080935E022A
:103C700082EE0E94C11D882341F090915E02892F3F
:103C80008B7F92FF846080935E0286EE0E94C11D4E
:103C9000882341F090915E02892F877F93FF88608F
:103CA00080935E0283EE0E94C11D882341F09091B3
:103CB0005E02892F8F7E94FF806180935E0285E390
:103CC0000E94C11D882341F090915E02892F8F7D53
:103CD00095FF806280935E0281E30E94C11D88236C
:103CE00041F090915E02892F8F7B96FF80648093D4
:103CF0005E0281E10E94C11D882341F090915E0225
:103D0000892F97FB87F9805880935E0280915E022D
:103D10000E94901C87E20E94C11D89838EE10E944F
:103D2000C11D882319F0B981B260B9838FE10E9467
:103D3000C11D882319F029812460298380E20E9413
:103D4000C11D882319F039813860398381E20E94CE
:103D5000C11D882319F049814061498382E20E9494
:103D6000C11D882319F059815062598383E20E9452
:103D7000C11D882319F089818064898384E20E94AF
:103D8000C11D8823B1F199819068998389810E942E
:103D9000871C3981232F30E050E040E029833A83AB
:103DA0004B835C83CA01B9010F900F900F900F9065
:103DB000DF91CF910C94C7188EE00E94C11D88231B
:103DC00039F090910702892F8B7F92FF846029CF71
:103DD00080E10E94C11D90910702882329F0892F5C
:103DE000877F93FF88601DCF892F8E7F90FF816032
:103DF00018CFA981A111CACF0E94831C282FCBCF35
:103E00000F900F900F900F90DF91CF9108958091B8
:103E10000B0280FF12C06091060185E0689FB0012F
:103E20001124759567957595679560387105A8F5A6
:103E300061157105A1F1862F089581FF09C0609178
:103E4000060185E0689FB001112475956795EDCF57
:103E50006091060182FD0AC080910C028823D1F096
:103E60009091050160910601891728F085E0689F0F
:103E7000B0011124DACF869FB001112485E0869F1E
:103E80009001879F300D1124692F70E0C9010E94B5
:103E90009529CBCF65E070E0CECF8FE7089581E024
:103EA000089580910B0280FF0CC06091040170E0C6
:103EB00075956795759567956115710549F1862F1B
:103EC000089581FF06C06091040170E075956795C3
:103ED000F3CF6091040182FD0BC090910C029923F5
:103EE000A1F06091030180910401961738F0682FCA
:103EF00070E06038710500F38FE70895899FC00175
:103F0000112470E00E949529F4CF61E070E0D7CFD2
:103F100081E00895803F31F40E94071F81958093CE
:103F20000F020895813F19F40E94071FF8CF823FC6
:103F300031F40E94071F819580930E020895833FFC
:103F400019F40E94071FF8CF893F29F40E94511FDE
:103F50008093100208958A3F21F40E94511F819599
:103F6000F7CF8B3F31F40E94511F8195809311024E
:103F700008958C3F19F40E94511FF8CF843F31F40B
:103F800080910D02816080930D020895853F21F498
:103F900080910D028260F7CF863F21F480910D025F
:103FA0008460F1CF873F21F480910D028860EBCFD0
:103FB000883F21F480910D028061E5CF8D3F31F47F
:103FC00080910B02816080930B0208958E3F21F453
:103FD00080910B028260F7CF8F3FB9F780910B027F
:103FE0008460F1CF90910E02803F41F480910F02E6
:103FF00087FD10920F02992371F00895813F29F4F3
:1040000080910F021816ACF3F6CF823F81F497FF30
:10401000F2CF10920E0280910F0290911002892B24
:1040200090911102892B49F710920C020895833F59
:1040300019F4191674F3DFCF893F39F48091100217
:104040001816CCF610921002D6CF8A3F29F4809130
:10405000100287FFD0CFF6CF8B3F39F48091110249
:1040600087FFC9CF10921102C6CF8C3F29F48091EF
:1040700011021816BCF3BFCF843F31F480910D02BA
:104080008E7F80930D02B7CF853F21F480910D0282
:104090008D7FF7CF863F21F480910D028B7FF1CF8A
:1040A000873F21F480910D02877FEBCF883F21F479
:1040B00080910D028F7EE5CF8D3F31F480910B0210
:1040C0008E7F80930B0297CF8E3F21F480910B025D
:1040D0008D7FF7CF8F3F09F08ECF80910B028B7FC2
:1040E000F0CF8DE092E00E9442100E940E1D90934E
:1040F0000A028093090208951F93CF93DF9300D0A3
:1041000000D000D0CDB7DEB78091090290910A02AD
:104110000E941A1DAC0180910C022091070130E031
:10412000811106C0209108019AE0299F9001112475
:104130004217530788F020910E02A0910F02A98325
:1041400010911002B0911102BE8321110FC09A2F5D
:10415000912B9B2B09F0B2C026960FB6F894DEBFC8
:104160000FBECDBFDF91CF911F9108958F3F19F002
:104170008F5F80930C02121624F40E94071F809315
:104180000E0280910E0287FF05C00E94071F8195D5
:1041900080930E022981121624F40E94071F809337
:1041A0000F0280910F0287FF05C00E94071F8195B3
:1041B00080930F0280910E02882309F455C030913C
:1041C0000F023D83332309F44FC0282F880F330B90
:1041D000440B550B29833A834B835C83CA01B90195
:1041E0000E94882823E333E343E35FE369837A8310
:1041F0008B839C8369817A818B819C810E94EC28CE
:1042000069837A838B839C8369817A818B819C818A
:104210000E94502860930E028D81082E000C990B8D
:10422000AA0BBB0B89839A83AB83BC83BC01CD01F2
:104230000E94882823E333E343E35FE369837A83BF
:104240008B839C8369817A818B819C810E94EC287D
:1042500069837A838B839C8369817A818B819C813A
:104260000E94502860930F02111624F40E94511FDF
:10427000809310028091100287FF05C00E94511F99
:104280008195809310029E81191624F40E94511F7B
:10429000809311028091110287FF05C00E94511F77
:1042A00081958093110226960FB6F894DEBF0FBE5B
:1042B000CDBFDF91CF911F910C9471208F3F09F0FA
:1042C00057CF68CF85E0EDE0F2E0DF011D928A95DF
:1042D000E9F710920C0210920B02089580913202BD
:1042E0000895CF93DF9300D00F92CDB7DEB7209122
:1042F0006402243019F523E029838A839B83209369
:10430000E9008FEF9091E800815095FD06C095ED92
:104310009A95F1F700008111F5CF8091E80085FFB3
:104320000DC050E040E063E070E0CE0101960E94D5
:10433000D0238091E8008E778093E8000F900F9053
:104340000F90DF91CF910895CF93DF9300D00F921C
:10435000CDB7DEB79C0180916402843031F582E0F4
:104360008983205831093B832A8383E08093E900C5
:104370008FEF9091E800815095FD06C095ED9A95DC
:10438000F1F700008111F5CF8091E80085FF0DC0A5
:1043900050E040E063E070E0CE0101960E94D0233F
:1043A0008091E8008E778093E8000F900F900F9037
:1043B000DF91CF910895209164022430F1F422E03E
:1043C0002093E9002FEF3091E800215035FD06C021
:1043D00035ED3A95F1F700002111F5CF2091E80075
:1043E00025FF0BC050E040E065E070E00E94D02364
:1043F0008091E8008E778093E8000895CF93DF9353
:10440000D82FC92F809164028430F1F49091130168
:104410009923E9F090915E0297FF19C08093E9001B
:104420008FEF9091E800815095FD06C095E19A9537
:10443000F1F700008111F5CF8091E80050E040E0F5
:1044400060E270E085FD1AC0DF91CF91089581E0B0
:104450008093E9008FEF9091E800815095FD06C0B0
:1044600095ED9A95F1F700008111F5CF8091E80064
:1044700085FFEACF50E040E068E070E08D2F9C2F90
:104480000E94D0238091E8008E778093E80080E23C
:10449000ED2FFC2FA2E1B2E001900D928A95E1F799
:1044A000D3CF80916302811109C00E9458250E94D8
:1044B000B5258091E20084608093E2000895109217
:1044C00063020895089508950C94D81C42E061ECAD
:1044D00081E00E94D42442E061EC82E00E94D42476
:1044E00042E061EC83E00E94D42442E261EC84E08B
:1044F0000C94D42480916602893089F148F482308A
:1045000009F494C0833009F44FC0813041F008951C
:104510008A3009F47BC08B3009F461C00895809122
:104520006502813A09F03FC08091E800877F80935F
:10453000E8008091690290916A02892B61F460E23F
:1045400082E192E070E00E941F248091E8008B7766
:104550008093E800089560E090E080E0F3CF8091E0
:104560006502813201F58091690290916A0200979B
:1045700011F00397C1F48091E800877F8093E800F1
:104580008091E80082FF0BC08091F100809332029D
:104590008091E8008B778093E8000C940825809147
:1045A00064028111EDCF089580916502813AD9F7B7
:1045B0008091690290916A02892BA9F78091E800A5
:1045C000877F8093E8008091E80080FFFCCF809196
:1045D00013018093F1008091E8008E77DCCF809109
:1045E0006502813201F78091690290916A02892BFC
:1045F000D1F68091E800877F8093E8000E9408252B
:1046000080916702809313010C94281580916502B4
:10461000813249F68091E800877F8093E8000E940C
:104620000825809168028093330208958091650285
:10463000813A09F0B8CF8091E800877F8093E80045
:104640008091E80080FFFCCF80913302C2CF84B715
:10465000877F84BF0FB6F894A89580916000886129
:1046600080936000109260000FBE80E8809361002C
:10467000109261000E947A100E9458250E94B52570
:104680008091E20084608093E20078940E94352853
:104690000E947C1089E091E00E94261080916402C3
:1046A000853029F00E9484100E94F30FF7CF0E94FA
:1046B000951C80916202882389F30E94C31C882381
:1046C00069F30E94BA23EACF9C01DA01892F992766
:1046D00083309105C1F068F48130910509F445C03B
:1046E000029761F48DE690E029EE38E02D933C933B
:1046F000089581329105E1F0829739F190E080E0F0
:1047000030E020E0F3CFC9019927213059F0823001
:10471000910559F0E5EEF8E0892B81F7849190E05E
:104720009F01E4CFEDECF8E0F9CFE9EBF8E0F6CF4C
:10473000643020F7E62FF0E0EE0FFF1FE05DFE4F44
:104740002081318189E090E0D1CF6430B8F670E00B
:10475000FB01EE0FFF1FE85DFE4F208131816C5D94
:104760007E4FFB01808190E0C1CF82E190E026E5A1
:1047700039E0BCCF80E189BD82E189BD09B400FE8A
:10478000FDCF8091D8008F7D8093D8008091E0008C
:1047900082608093E0008091E00081FDFCCF08956D
:1047A000AF92BF92CF92DF92FF920F931F93CF935E
:1047B000DF936C01EB018A010E942725F82E8111FD
:1047C00023C00115110539F0F80180819181C81BC2
:1047D000D90BC80ED91EB12CA12C2097A9F080911D
:1047E000E80085FD22C08091E8008E778093E80084
:1047F00001151105A1F0F80180819181A80EB91E63
:10480000B182A08285E0F82E8F2DDF91CF911F918C
:104810000F91FF90DF90CF90BF90AF9008950E94CE
:1048200027258823D1F2F82EEFCFF60181916F0171
:104830008093F1002197FFEFAF1ABF0ACECFFC01A2
:10484000CB0120916B0230916C022617370790F054
:10485000009729F42091E8002E772093E80040E0AB
:10486000009751F4411108C08091E80082FF31C0E7
:1048700080E00895C901F3CF209164022223A9F1B9
:104880002530A9F12091E80023FD2DC02091E800FA
:1048900022FDEACF2091E80020FFE2CF3091F30023
:1048A0002091F200009719F02830310558F041E0CE
:1048B0002830310509F040E02091E8002E77209360
:1048C000E800CECF41914093F10001972F5F3F4F19
:1048D000E9CF80916402882341F0853041F08091D6
:1048E000E80083FFC1CF81E0089582E0089583E06E
:1048F0000895FC01CB0120916B0230916C022617C8
:10490000370790F0009729F42091E8002E77209344
:10491000E80040E0009751F4411108C08091E800A0
:1049200082FF32C080E00895C901F3CF2091640274
:104930002223B1F12530B1F12091E80023FD2EC0F2
:104940002091E80022FDEACF2091E80020FFE2CF8D
:104950003091F3002091F200009719F028303105D2
:1049600058F041E02830310509F040E02091E8009E
:104970002E772093E800CECF44914093F1003196FA
:1049800001972F5F3F4FE8CF80916402882341F069
:10499000853041F08091E80083FFC0CF81E0089529
:1049A00082E0089583E00895982F973028F08F7063
:1049B0008093E90081E008959093E900242F762FF9
:1049C00050E0981731F07091EC002091ED0050917B
:1049D000F00021FD02C09F5FE8CF3091EB003E7FE9
:1049E0003093EB003091ED003D7F3093ED0030913E
:1049F000EB0031603093EB007093EC002093ED00FE
:104A00005093F0002091EE0027FDE5CF80E008955F
:104A10008091650287FF13C08091E80082FF06C085
:104A20008091E8008B778093E80004C08091640255
:104A30008111F2CF0895809164028823D9F3809187
:104A4000E80080FFF8CF8091E8008E77ECCF2091CE
:104A5000E4003091E50095E6A9012091EC00822F59
:104A6000817020FF06C08091E80080FF06C080E0D2
:104A700008952091E80022FD1AC0809164028823E5
:104A800089F0853089F08091EB0085FD0FC0209181
:104A9000E4003091E50042175307F9F29150E1F636
:104AA00084E0089582E0089583E0089581E0089508
:104AB0000E94C6250E94CE25E0EEF0E08081816054
:104AC0008083E8EDF0E080818F77808319BCA7EDCB
:104AD000B0E08C918E7F8C9380818F7E808310924A
:104AE000630208950F931F93CF93DF930E94C6250F
:104AF0000E94CE25C8EDD0E088818F778883888199
:104B00008068888388818F7D888319BC10926402B5
:104B100010926002109262021092610200EE10E0A8
:104B2000F80180818B7F808388818160888342E067
:104B300060E080E00E94D424E1EEF0E080818E7F8E
:104B40008083E2EEF0E080818160808380818860F4
:104B50008083F80180818E7F808388818061888353
:104B6000DF91CF911F910F910895E8EDF0E08081E2
:104B70008F7E8083E7EDF0E080818160808384E038
:104B800082BF81E0809363020C947225E8EDF0E02F
:104B900080818E7F80831092E20008951092DA0067
:104BA0001092E10008951F920F920FB60F921124F8
:104BB0002F933F934F935F936F937F938F939F9325
:104BC000AF93BF93EF93FF938091E10082FF0BC0FF
:104BD0008091E20082FF07C08091E1008B7F80938B
:104BE000E1000E9434288091DA0080FF19C0809192
:104BF000D80080FF15C08091DA008E7F8093DA00A4
:104C00008091D90080FF94C080E189BD82E189BD97
:104C100009B400FEFDCF81E0809364020E9451221E
:104C20008091E10080FF19C08091E20080FF15C0F3
:104C30008091E2008E7F8093E2008091E2008061AB
:104C40008093E2008091D80080628093D80019BCE4
:104C500085E0809364020E9463228091E10084FFDA
:104C600029C08091E20084FF25C080E189BD82E1F6
:104C700089BD09B400FEFDCF8091D8008F7D80935F
:104C8000D8008091E1008F7E8093E1008091E20066
:104C90008F7E8093E2008091E20081608093E20049
:104CA00080916002882309F449C084E08093640203
:104CB0000E9464228091E10083FF29C08091E2007C
:104CC00083FF25C08091E100877F8093E10082E02F
:104CD00080936402109260028091E1008E7F809345
:104CE000E1008091E2008E7F8093E2008091E200FB
:104CF00080618093E20042E060E080E00E94D42482
:104D00008091F00088608093F0000E946222FF9101
:104D1000EF91BF91AF919F918F917F916F915F9133
:104D20004F913F912F910F900FBE0F901F901895AC
:104D300019BC109264020E945F2272CF8091E3003E
:104D400087FD02C081E0B2CF83E0B0CF1F920F9207
:104D50000FB60F9211242F933F934F935F936F934E
:104D60007F938F939F93AF93BF93CF93DF93EF93F3
:104D7000FF93D091E900DF708091EC00C82FC170E3
:104D800080FDC0E81092E9008091F000877F809359
:104D9000F00078940E94EA261092E9008091F000D9
:104DA00088608093F000CD2BCF70C093E900FF9115
:104DB000EF91DF91CF91BF91AF919F918F917F91B3
:104DC0006F915F914F913F912F910F900FBE0F9078
:104DD0001F9018951F93CF93DF93CDB7DEB7AA9797
:104DE0000FB6F894DEBF0FBECDBF85E692E0FC01A2
:104DF00001962091F100208322E08D369207B9F7C9
:104E00000E947A228091E80083FF16C1809165029A
:104E1000909166029A3008F00FC1E92FF0E0EC5D46
:104E2000F54D0C94A929803881F0823809F004C12D
:104E3000809169028F708093E9008091EB0085FB7F
:104E4000882780F91092E90006C080916102909154
:104E50006202911182609091E800977F9093E80040
:104E60008093F1001092F1008091E8008E77E0C00D
:104E7000882309F4CEC0823009F0DEC08091670239
:104E80008111D1C0809169028F7009F4D5C08093DF
:104E9000E9002091EB0020FFC6C0933031F48091EF
:104EA000EB0080628093EB00BEC09091EB009061BC
:104EB0009093EB0021E030E001C0220F8A95EAF7E1
:104EC0002093EA001092EA008091EB008860EACF1C
:104ED0008111B2C0109167021F778091E300807842
:104EE000812B8093E3008091E800877F8093E80026
:104EF0000E9408258091E80080FFFCCF8091E300AC
:104F000080688093E30082E0111183E08093640263
:104F100093C08058823008F08FC0809167029091D2
:104F200068028C3D23E09207A1F583E08A838AE240
:104F300089834FB7F894DE01139620E03EE051E2FA
:104F4000E32FF0E050935700E49120FF03C0E29577
:104F5000EF703F5FEF708E2F90E0EA30C0F0C796A1
:104F60008D939D932F5F243159F74FBF8091E800B7
:104F7000877F8093E8006AE270E0CE0101960E948C
:104F80001F248091E8008B778093E80055C0C0967D
:104F9000E7CFAE014F5F5F4F609169020E946423CB
:104FA000BC01892B09F448C08091E800877F809379
:104FB000E80089819A810E947924E3CF8038E1F565
:104FC0008091E800877F8093E80080916002809361
:104FD000F1004ACF811130C090916702923060F5A4
:104FE0008091E800877F8093E800909360020E94A0
:104FF000082580916002882311F084E005C080912B
:10500000E30087FDFACF81E0809364020E9466226C
:1050100013C080916702813079F481E0933009F008
:1050200080E0809362021092E9008091E800877F1F
:105030008093E8000E9408258091E80083FF0AC061
:105040008091E800877F8093E8008091EB00806288
:105050008093EB00AA960FB6F894DEBF0FBECDBFCB
:10506000DF91CF911F9108950895CF9380916402AD
:105070008823A1F0C091E900CF709091EC00892FB6
:10508000817090FD80E8C82B1092E9008091E800C3
:1050900083FD0E94EA26CF70C093E900CF91089566
:1050A0000E9457286894B1110C94E62808950E9434
:1050B000CB2888F09F5798F0B92F9927B751B0F0B7
:1050C000E1F0660F771F881F991F1AF0BA95C9F78C
:1050D00014C0B13091F00E94E528B1E008950C941D
:1050E000E528672F782F8827B85F39F0B93FCCF3D0
:1050F000869577956795B395D9F73EF49095809509
:10510000709561957F4F8F4F9F4F0895E89409C028
:1051100097FB3EF490958095709561957F4F8F4FEA
:105120009F4F9923A9F0F92F96E9BB279395F69500
:10513000879577956795B795F111F8CFFAF4BB0F7E
:1051400011F460FF1BC06F5F7F4F8F4F9F4F16C0E2
:10515000882311F096E911C0772321F09EE8872F6C
:10516000762F05C0662371F096E8862F70E060E028
:105170002AF09A95660F771F881FDAF7880F9695A1
:10518000879597F9089557FD9058440F551F59F08A
:105190005F3F71F04795880F97FB991F61F09F3F24
:1051A00079F087950895121613061406551FF2CF4D
:1051B0004695F1DF08C0161617061806991FF1CF9D
:1051C00086957105610508940895E894BB276627C4
:1051D0007727CB0197F908950E94FF280C94702936
:1051E0000E94622938F00E94692920F0952311F06D
:1051F0000C9459290C945F2911240C94E6280E94E0
:10520000C32870F3959FC1F3950F50E0551F629F1F
:10521000F001729FBB27F00DB11D639FAA27F00D0F
:10522000B11DAA1F649F6627B00DA11D661F829F36
:105230002227B00DA11D621F739FB00DA11D621F1B
:10524000839FA00D611D221F749F3327A00D611D38
:10525000231F849F600D211D822F762F6A2F11241A
:105260009F5750409AF0F1F088234AF0EE0FFF1F4D
:10527000BB1F661F771F881F91505040A9F79E3FA4
:10528000510580F00C9459290C94E6285F3FE4F313
:10529000983ED4F3869577956795B795F795E795FA
:1052A0009F5FC1F7FE2B880F911D9695879597F903
:1052B000089597F99F6780E870E060E008959FEF98
:1052C00080EC089500240A9416161706180609069D
:1052D000089500240A94121613061406050608956C
:1052E000092E0394000C11F4882352F0BB0F40F4F4
:1052F000BF2B11F460FF04C06F5F7F4F8F4F9F4F34
:105300000895AA1BBB1B51E107C0AA1FBB1FA6170C
:10531000B70710F0A61BB70B881F991F5A95A9F75E
:1053200080959095BC01CD01089597FB072E16F44A
:10533000009407D077FD09D00E94812907FC05D091
:105340003EF4909581959F4F0895709561957F4F9C
:105350000895EE0FFF1F0590F491E02D0994F9993F
:10536000FECF92BD81BDF89A992780B50895A6E138
:10537000B0E044E050E00C94E929A8E1B0E042E05C
:1053800050E00C94E929262FF999FECF92BD81BDFA
:10539000F89A019700B4021639F01FBA20BD0FB673
:1053A000F894FA9AF99A0FBE08950396272F0E944F
:1053B000C4290E94C329252F0E94C429242F0C949C
:1053C000C4290196272F0E94C4290C94C329DC010B
:1053D000CB01FC01F999FECF06C0F2BDE1BDF89A00
:1053E000319600B40D9241505040B8F70895F894AA
:1053F000FFCF3A063F06440649064E0653065806B6
:10540000B006D5065D0669066D0671067506790655
:105410007D068106850689068D0691069506990604
:105420009D06A106A506A906D312D3122B132B1392
:105430006F138B1303130313961303135E145E147D
:10544000C91403130313D214132738271C28382731
:0C5450001C28682789271C28DE27EA2773
:10545C00FFE4012808140A321E6E21FE21DB21A470
:10546C0021712101903733323130F0F1F4F5F6F738
:10547C0036353497404D3639240AD709A1096809C5
:08548C00FB0814092D09460973
:00000001FF
